:020000040800F2
:10000000300C002035020008F5220008F12200081B
:10001000F32200084D1B0008592C000800000000C6
:100020000000000000000000000000005D24000847
:10003000FD210008000000007D2300084D0200089B
:100040004F020008712300084F0200084F02000809
:100050004F0200084F020008012200081922000880
:1000600025220008312200083D2200085D1B0008FF
:10007000691B0008951B0008DD1B0008091C00080F
:10008000511C0008991C00084F0200084F0200088C
:100090004D2C0008511B00084F020008492200089F
:1000A0004F020008592500084F0200084F020008BF
:1000B00065250008712500087D2500084F0200080D
:1000C0004F0200084F0200084F0200084F020008CC
:1000D0004F02000899250008692700083529000803
:1000E0000D2200084F0200084F02000800F002F83D
:1000F00000F090F80AA090E8000C82448344AAF132
:100100000107DA4501D100F085F8AFF2090EBAE82F
:100110000F0013F0010F18BFFB1A43F0010318473B
:10012000902D0000B02D0000103A24BF78C878C18F
:10013000FAD8520724BF30C830C144BF04680C60ED
:10014000704700000023002400250026103A28BF35
:1001500078C1FBD8520728BF30C148BF0B60704739
:100160006E2900F06581702900F0AF82662902F0E7
:100170001D86652902F01A86672902F01786612913
:1001800002F0168603681B0A28BF41F08001692926
:1001900000F01281642900F00F81752900F00C81B4
:1001A0006F2900F03C82782900F07B82E92900F079
:1001B000D781E42900F0D481F52900F0D181EF291D
:1001C00000F03982F82900F07A820368DB0928BF41
:1001D00041F08001632900F07D87732900F0828758
:1001E000E32900F08D87F32900F092870020704703
:1001F0001FB500F0DFFF04000020002102F0C0FD69
:10020000401C60600020002102F0A4FDE0601FBDE2
:1002100010B510BD00F0A0FF1146FFF7E9FF02F096
:1002200039FD01F07DF803B4FFF7F2FF03BC02F0E3
:100230002FFD00000948804709480047FEE7FEE718
:10024000FEE7FEE7FEE7FEE7FEE7FEE7FEE7FEE786
:1002500004480549054A064B704700000925000877
:10026000ED00000830060020300C0020300800208F
:1002700030080020704700007CB51D4616460C0073
:10028000009001D02044401E074B7B442A4669461B
:100290000190304600F0E5F805461CB100206946A3
:1002A00000F0F2F828467CBD0502000010B5431CA2
:1002B00002E010F8011B71B18107FAD14FF0013251
:1002C00002C88C1A8C4314EAC211F9D0C01A0A066B
:1002D00003D0C01E10BDC01A10BD0A0401D0801E7C
:1002E00010BD0902FCD0401E10BD7047704770471A
:1002F000704770B5044685690068C10601D530268F
:1003000000E02026C00707D070BDD4E901213046A7
:100310009047206A401C20626D1EF6D570BD70B5F6
:10032000044685690078C00707D170BDD4E9012172
:1003300020209047206A401C20626D1EF6D570BDBB
:1003400009684A0501D540B27047C905FCD500B21D
:10035000704709684A0501D5C0B27047C905FCD588
:1003600080B2704770B50C460546012A05D0287842
:10037000800600D5EA69002302E0012305E05B1C4A
:10038000934202D2E05C0028F9D1A869E618C01AAD
:10039000A861286A184428622846FFF7AAFF04E0EB
:1003A000D5E9012114F8010B9047B442F8D328464F
:1003B000FFF7B5FF70BD00002DE9F04106460024AF
:1003C00010687529314616A510D0FFF7B9FF00282F
:1003D00002DA404213A507E031688A0701D512A569
:1003E00002E0490704D511A5012401E0FFF7B1FFA0
:1003F00000210A2206F1240709E0B0FBF2FCB0FB61
:10040000F2F302FB1C00303078541846491C0028D7
:10041000F3D123462A463046BDE8F04100F069BAE0
:10042000000000002D0000002B0000002000000054
:1004300011680268006A530501D508700AE0D30507
:1004400001D5088006E0130603D5C217C1E90002F2
:1004500000E008600120704701694A1C02610878C9
:10046000704700B58FB0CDE90131002105910549F4
:100470007944CDE903101146684600F031F90FB018
:1004800000BD0000E5FFFFFF0A6802F8010B0A60EB
:100490007047D1E900239A4202D2531C0B601070BE
:1004A000704700002DE9FF5F15468A460446DFF8D5
:1004B000AC80F8440027D8E900103E46CDE9001092
:1004C00010E03AF816106A4602A800F025FE411C1A
:1004D00007D02178890603D5E269391891420DD8F1
:1004E0000744761C2078800602D5E069B84205DD15
:1004F000AE42E6DB3AF816000028E2D1A069C01B44
:10050000A0612046FFF7F5FED8E90010CDE9001004
:10051000002017E03AF818106A4602A800F0FCFD27
:10052000B0F1FF3F81460BD000250DF1080B05E02F
:10053000D4E901211BF8050090476D1C4D45F7D308
:1005400008F10100B0428046E4DB206A38442062B2
:100550002046FFF7E4FEBDE8FF9F0000FE280000F4
:100560002DE9F0418046D21D22F007020025D2E994
:100570000002F52915A614D0011E72F1000106DA59
:100580000023D0EB030063EB020211A608E0D8F8C9
:1005900000108B0701D50FA602E0490701D50EA672
:1005A00001251146002408F1240704E000F05CF95D
:1005B00030323A55641C50EA0102F7D12B463246DC
:1005C00021464046BDE8F04100F093B9000000002C
:1005D0002D0000002B0000002000000030B400219E
:1005E00000F1240408E002F00705D208303542EAA1
:1005F0004372DB086554491C52EA0305F3D10468D1
:10060000002310A2250707D5A40600D421B1C46990
:1006100001230DA2641EC46130BC00F06AB910B59C
:10062000044621461068FFF794FE02462046BDE8C6
:1006300010400023D2E7D21D22F00701D1E90023A8
:10064000CCE700000000000030000000F0B40D46D0
:100650000188090502D5214C7C4402E01F4C7C44F2
:100660000E34002100F1240608E002F00F07120901
:10067000E75D42EA03721B097754491C52EA0307FB
:10068000F3D102780023120704D5702D06D009B1EA
:10069000022311342246F0BC00F02BB901231034A0
:1006A000F8E770B504460D4621461068FFF751FE85
:1006B000024629462046BDE870400023C6E7D21D09
:1006C00022F00703D3E90023C0E70368126843F070
:1006D000200303600823C3610023B7E760270000FD
:1006E0002DE9F05F894604464FF0000ADFF874B147
:1006F000FB44C0F820A02046E1688847002874D059
:10070000252806D0D4E901219047206A401C2062A8
:10071000F1E700265F462046E16888472028054625
:1007200007DB312D05D2781910F8200C08B10643EB
:10073000F1E7B00701D526F00406C4F81CA0002795
:10074000C4F818A02A2D09D0284602F09AFA38B326
:1007500004EB8708303DC8F8185019E059F8041B1D
:10076000204604EB87029161E1688847012F054626
:1007700018D1E069002820DA26F020061DE0D8F81C
:10078000180000EB800005EB40003038C8F8180076
:100790002046E1688847054602F073FA0028EED14A
:1007A000012F0AD02E2D08D12046E16888477F1CF2
:1007B0000546022F46F02006C4DBA069002803DAB4
:1007C000404246F00106A061F00701D026F0100675
:1007D0006C2D0BD0682D09D04C2D39D06A2D35D019
:1007E000742D35D07A2D33D016E038E0E1682F46ED
:1007F00020468847B842054609D16C2F26D04FF4D1
:100800008060E168064320468847054604E06C2F77
:100810001AD04FF4807006430DB3A5F1410019289A
:1008200002D8203546F400664A462946204626600E
:100830004E46FFF795FC80B101280BD0F61D26F03F
:10084000070000F1080956E74020E4E78020D8E7D8
:100850000020D6E706F104094DE7284652E7206A52
:10086000BDE8F09FF026000030B5B0F10A024FEA73
:10087000900E71F100034EEA817EB0EB0E0061EB49
:1008800091014FEA101E4EEA017E10EB0E0041EB83
:1008900011114FEA102E4EEA016E10EB0E0041EBE3
:1008A00011214FEA104E4EEA014E10EB0E0041EBC3
:1008B0001141401841F100014FEAD00040EA417077
:1008C0004FEAD10110EB80054FEA810444EA9074AD
:1008D00044EB01046D1944EB0404521BA3414FF097
:1008E000000348BF0A3200D530BD401C41F1000171
:1008F00030BD2DE9F0470D4699469246044600F179
:1009000024080168880604D5E06921F010012160FF
:1009100000E00120A84201DD471B00E00027A1699B
:100920007A1902EB0900081AA0612078C00602D4E7
:100930002046FFF7DEFC002608E0D4E901211AF882
:1009400006009047206A401C761C20624E45F4DB6E
:100950002078C0060AD52046FFF7CBFC06E0D4E994
:10096000012130209047206A401C2062381EA7F1E8
:100970000107F4DC07E0D4E9012118F805009047ED
:10098000206A401C2062281EA5F10105F3DC2046E8
:10099000FFF7C5FC2078000602D50220BDE8F087ED
:1009A0000120FBE770472DE9FF4F0C461E464FF034
:1009B000FF378BB0D2E90001DDF860800A908A46EB
:1009C000C1F30A5505B93D46002108464FF0000025
:1009D000BAF1000F00F4400005DA00EB80004FF49C
:1009E000400101EA50004FEA9059B9F1010F00DDD2
:1009F000B9460A9850EA4A000ED044F61050A5F2C3
:100A0000FF3545432F14B8F1000F1ED07542291E43
:100A10001EDDC9F100021CE0B8F1010F4FF000002B
:100A200001D0302103E0F24305E02154401CB042E4
:100A3000FBDB30460022002121540B99C1F80880CD
:100A4000C1E900200FB0BDE8F08FBD1B6D1CDEE7D3
:100A50004A4600DA694206A800F0F0FB06AB93E8CC
:100A6000070003AB83E8070050460A9900F0A6FC94
:100A70008DE80700A0F500501F3800900398002D66
:100A80000ADD42F21F014A460844002303A90390ED
:100A9000684600F00FFF09E0A0F500504A461F38F5
:100AA000002303A90390684600F019FF8DE80700B2
:100AB0000004000C03D04FF0FF30410800E0104666
:100AC000B8F1000F03D00022009215461EE0751EFB
:100AD00005D4FFF7C9FE303262556D1EF9D5B34615
:100AE0000122084302D000227F1C04E02078302835
:100AF00001D100227F1E002A099784D01DE0112D0C
:100B000007DAFFF7B1FE303262556D1C50EA010280
:100B1000F5D1084302D00098C8B10EE00021681E4C
:100B200005E0235C625C63542254401E491C8142F0
:100B3000F7DBAB46A81B401E0990002004F80B0011
:100B40000B98099AC0F80880C0E9002B7AE71126B3
:100B50004FF0000857E72DE9F04F88460446D21DB4
:100B600022F0070191B0D1E90001CDE90A0102F0BC
:100B700074F802460B98C00F01D02D2007E02068C2
:100B8000810701D52B2002E0202101EAC000032AC1
:100B9000099001D0072A05DB03464146204600F0B4
:100BA0000DFB0BE12078800601D5E06900E006200E
:100BB000B8F1650F814606D0B8F1660F18D0B8F1CC
:100BC000670F70D131E00020B9F1110F009001DB07
:100BD000112301E009F101030AAA01A90CA8FFF7FA
:100BE000E2FEDDE90C70002609F10105834647E0CD
:100BF00001204B4600904FF000470AAA01A90CA81B
:100C0000FFF7D1FEDDE90DB00C995D46002610B965
:100C100009F101000D18B9EB050003D4C0F1FF364E
:100C200009F10105A5EB09002BE0B9F1010F01DA8B
:100C30004FF001090020B9F1110F0090484601DD85
:100C4000112300E003460AAA01A90CA8FFF7ABFE96
:100C5000DDE90C704D4600268346207800070AD453
:100C6000AB4500DA5D4601A8012D04DD411911F8FC
:100C7000011C302907D04F4502DA17F1040F04DABE
:100C8000012082460FE06D1EEEE7002F02DCED1B17
:100C90003E4403E0781CA84200DD7D1CB81B00F137
:100CA000010A4FF000472078000703D4AA4501DB72
:100CB0004FF0FF3A0021B7F1004F0DF143088DF8D6
:100CC000431024D002202B23002F01DA7F422D2352
:100CD0000A21021EA0F1010000DC5FB197FBF1FCCC
:100CE00097FBF1F201FB1C7C17460CF1300C08F865
:100CF00001CDEEE7A8F1010003702188090501D5B7
:100D0000452100E06521A0F1010800F8011C0998C7
:100D10000FA9A1EB0807FF1D00B10120411901EB4C
:100D2000EA70A1693844081A401EA0612078C00604
:100D300002D42046FFF7DDFA099828B1D4E9012151
:100D40009047206A401C20622078C00622D52046A9
:100D5000FFF7CFFA1EE0002E04DBB34502DD01A849
:100D6000805D00E03020D4E901219047206A401CDA
:100D70002062761CAAF101005FEA000A0AD100F0A5
:100D800019FAC0680168405CD4E901219047206AE3
:100D9000401C2062281EA5F10105DCDC07E0D4E937
:100DA000012118F8010B9047206A401C2062381E70
:100DB000A7F10107F3DC2046FFF7B1FA032011B0D9
:100DC00041E600002DE9F04F04460D46D21D22F009
:100DD000070089B0D0E900974846394601F03DFF49
:100DE0000246F80F01D02D2307E02068810701D5C6
:100DF0002B2302E0202101EAC0038DF820300BB143
:100E0000012000E00020032A824601D0072A04DBEB
:100E10002946204600F0D2F93FE12078800601D42F
:100E20000D2500E0E569C7F30A560D2D49DA0021CA
:100E30004FEA175B08464FF00000002F00F4400017
:100E400007DA00EB80004FF4400100EBD07001EABC
:100E500060008115012901DD4FF0FF3100224FEACA
:100E6000850CBCF1180F06D31346ACF118004FF0F7
:100E70008052C24003E04FF4801323FA0CF30CF1CC
:100E80000C0CBCF1200F04D3ACF1200C09FA0CF0CF
:100E900001E007FA0CF000294FF0004801DD18B915
:100EA0000FE00ED140450CD319EB02095F4121B987
:100EB000404502D19F4329EA0209BBEB175F00D0EE
:100EC000761C2088000502D57B48784402E07A48E9
:100ED0007844193808AA302302F80A30037C0AF152
:100EE0000101002E0AF1020A53546A4602DC4FF057
:100EF000300101E04FF031014FF001088DF8001092
:100F000002D0A6F2FF3603E059EA470100D06B4E4B
:100F1000002D02DC2178090704D54FF002082E21AC
:100F20008DF80110C44600210BE0C7F303433F01D5
:100F3000C35C491C6D1E02F80830052908F1010840
:100F400001DA002DF1DC00210CE000EB1973491CE3
:100F50001B786D1E082902F808304FEA091908F1BC
:100F6000010801DA002DF0DC21688B0602D516E0BD
:100F7000A8F10108E04505DD02EB080313F8013C88
:100F8000302BF5D0B8F1000F09DD02EB080313F8A0
:100F9000013C2E2B03D1090701D4A8F10108002D33
:100FA00005DD3E2102F808106D1E08F10108407CA5
:100FB000002E02F8080008F1010804DA2D2076421C
:100FC00002F8080002E02B2002F808000A214FF482
:100FD0007A70864208F101080BDB96FBF0F33033A0
:100FE00002F8083096FBF0F308F1010800FB1366E5
:100FF00001E0642E0CDB642096FBF0F3303302F842
:10100000083096FBF0F308F1010800FB136601E0DD
:101010000A2E06DB96FBF1F0303002F8080008F1EA
:10102000010896FBF1F001FB1060303002F8080077
:10103000A16908F1010808EB050202EB0A00081A91
:10104000A0612078C00602D42046FFF752F9216A39
:1010500008AE01EB0A00206204E0D4E9012116F891
:10106000010B9047BAF1010AF7D22078C00602D5E9
:101070002046FFF73EF96E4609E016F8010B3E28C0
:101080000FD0D4E901219047206A401C2062B8F1BA
:101090000108F2D22046FFF742F909B00320BDE86B
:1010A000F08F206A2844206203E0D4E90121302037
:1010B00090476D1EEBD3F8E73A1F000002FCFFFFDC
:1010C00010B5436913B1AFF3008001E0FFF74AF9AF
:1010D000012010BD127800F124010A7000224A702C
:1010E0000122EDE711684FF0FF32E9E710B54369DF
:1010F00013B1AFF3008001E0FFF7D4F9012010BD78
:10110000128800F1240182840022C2840122EDE7CA
:1011100011684FF0FF32E9E770B516460C460546F8
:1011200000F040F8036893F80101012806D0FF2C75
:101130000FD8185D68B101202C7070BDD3F807017D
:101140003246214603F2071303442846BDE87040A7
:1011500018474FF0FF3070BD754600F0EBF8AE4613
:1011600005006946534620F00700854618B020B5B3
:10117000FFF76EF8BDE820404FF000064FF0000783
:101180004FF000084FF0000B21F00701AC46ACE82F
:10119000C009ACE8C009ACE8C009ACE8C0098D469C
:1011A0007047000010B500F005F8001D10BD00BF2D
:1011B000D11B000000487047EC0500202DE9F041EC
:1011C0001F46044603260168072A01F4006004DB79
:1011D00008B116A505E016A503E008B115A500E0C5
:1011E00015A521F010002060A069C01EA0610FB1FC
:1011F000401EA0612046FFF77CF84FB1D4E90121E1
:1012000038469047206A401C2062C01C206206E0DD
:10121000206AFAE7D4E9012115F8010B9047761E00
:10122000F8D22046FFF77BF8BDE8F0814E414E0032
:101230006E616E00494E4600696E66002DE9F0470A
:10124000814616468AB0354878440DC88DE80D00B1
:1012500032487844801C03AC0DC884E80D0041F688
:101260009B300844372190FBF1F290FBF1F5A5F19A
:10127000800501FB12041B3C02D56442012000E002
:101280000020DFF898A080460027FA44AAF1BE0AA1
:101290000EE0E0070AD03246684607EB470101231B
:1012A0000AEB810100F01BFB8DE8070064107F1C36
:1012B000002CEED1194F7F44AE3F19E0E80715D05E
:1012C00007EB04100DF1180A90E80E008AE80E00F2
:1012D000C068F04201D1981908903246012306A94E
:1012E00003A800F0FCFA03AB83E807006D10641C50
:1012F000002DE3D14FF0010332466946B8F1000FEB
:1013000003A802D000F0D6FA01E000F0E8FAC9E93B
:101310000001C9F808200AB0BDE8F0874C1C0000A5
:1013200010B50446AFF300802046BDE81040FEF73C
:101330007ABF000000487047CC0500204FF0013C08
:1013400050F8042B51F8043B9A4221D1A2EB0C0334
:10135000934313EACC1317D150F8042B51F8043BF4
:101360009A4215D1A2EB0C03934313EACC130BD191
:1013700050F8042B51F8043B9A4209D1A2EB0C031C
:10138000934313EACC13DBD04FF00000704700BF4B
:10139000D01A01BAB1FA81F101F0180122FA01F074
:1013A000CB40C1F12001DBB2C0B2C01A2CFA01F36C
:1013B000D11A914311EAC311E6D170475FEA400C9C
:1013C00008BF91F0000F4FEA8C234FEAC12243EA95
:1013D00051514FEA1C5018BF00F5F0404FEA300061
:1013E00018BF41F000415FEA6C5C00F02980BCF15D
:1013F000FF3F08BF40F080407047130C06BF120447
:101400004FF0100C4FF0000C130E04BF12020CF141
:10141000080C130F04BF12010CF1040C930F04BF4E
:1014200092000CF1020CD30F04BF52000CF1010C1E
:1014300011464FF00002A0F11F00A0EB0C00704716
:1014400011F0004F08BF704731F000413FF4D5AFB5
:101450000B0C06BF09044FF0100C4FF0000C0B0EE4
:1014600004BF09020CF1080C0B0F04BF09010CF1B9
:10147000040C8B0F04BF89000CF1020CCB0F04BFCE
:1014800049000CF1010CCCF12003A0EB0C0022FA76
:1014900003F302FA0CF241EA030100F10100704784
:1014A00020F07F4C80EA030023F07F47ACEB07037A
:1014B00003F57C5300F0004003F1FF032DE9804960
:1014C0004FEA154B09B44FEA144325EA0B4E24EAC0
:1014D00003480FF2042606EB132749083E785FEA1B
:1014E000320203FB0667C7F5000707FB06F64FEA63
:1014F00054374FEAD64606F1020607FB066CCCF1DC
:10150000005C4FEA1C472CEA074C07FB06F40CFB77
:1015100006F504EB15464FEA961634BF00204FF04F
:1015200000404FEAD13706FB07FC4FEA1C4C0CFB8E
:101530000BF7D21B03FB0CF761EB07010CFB0EF75B
:10154000B0EB074072EB17420CFB08F734BFA2EB7D
:101550000742B2EB074261EB17414FEA0C444FEAF6
:10156000910706FB07FC4FEA1C4C0CFB0BF7B0EB9A
:10157000C74072EB573203FB0CF734BFA2EBC742F4
:10158000B2EBC74261EB57310CFB0EF7B0EBC70073
:1015900072EB57720CFB08F734BFA2EBC702B2EB39
:1015A000C70261EB5771039F4FEA816141EA9211D3
:1015B00004EBCC044FEAD1374FEA826206FB07FC0A
:1015C00042EA90124FEA80604FEA1C4C0CFB0BF78A
:1015D000D21B03FB0CF761EB07010CFB0EF7B0EB22
:1015E000074072EB17420CFB08F734BFA2EB07422F
:1015F000B2EB074261EB17414FEA8C554FEA910776
:1016000004EB9C2406FB07FC4FEA1C4C0CFB0BF77D
:10161000B0EBC74072EB573203FB0CF734BFA2EBC1
:10162000C742B2EBC74261EB57310CFB0EF7B0EB90
:10163000C70072EB57720CFB08F734BFA2EBC7026E
:10164000B2EBC70261EB577115EB4C254FEA816194
:1016500041EA92114FEA82624FEAD13742EA901290
:1016600006FB07FC44F100044FEA80604FEA1C4C83
:101670000CFB0BF7D21B03FB0CF761EB07010CFB18
:101680000EF7B0EB074072EB17420CFB08F734BFC4
:10169000A2EB0742B2EB074261EB174115EB1C15B9
:1016A0004FEA813141EA92414FEA823242EA904266
:1016B0004FEA80304FEA0C7644F1000448EA0343D5
:1016C0004EEA0B484FF0000EB2EB080C71EB03072B
:1016D00024BF624639464EEB0E0E4FF0000B001849
:1016E000524149414BEB0B0BB2EB080C71EB03077A
:1016F0007BF1000B24BF624639464EEB0E0E4FF0D5
:10170000000B0018524149414BEB0B0BB2EB080C9C
:1017100071EB03077BF1000B24BF624639464EEBA9
:101720000E0E51EA020718BF46F0010616EB0E76C0
:1017300055F1000254F1000103D5BDE88901BDE86F
:101740000088BDE88901BDE80048B619524141EB67
:101750000101A3F10103704780807F7E7D7C7B7A4D
:101760007978777676757473727171706F6E6E6D4D
:101770006C6C6B6A6A6968686766666564646363F3
:1017800062616160605F5F5E5E5D5D5C5C5B5B5A79
:101790005A595958585757565655555554545353E6
:1017A00052525251515050504F4F4F4E4E4D4D4D41
:1017B0004C4C4C4B4B4B4A4A4A494949484848478C
:1017C00047474746464645454544444444434343CA
:1017D0004342424242414141002B9C4630D4770073
:1017E0002BD01CB54FEA370703B44FF010004FF071
:1017F0001001BAF1000F06D0BCF1000FDCBF40F0C1
:10180000080040F008014FF000000FBCBDE8104098
:101810000BF1010BBBF1010F08BF5FEA170722BFF5
:1018200012F1010211F101014FF0004143F10003F7
:1018300000F0004043EA00007047F9D35708D0E7B2
:1018400046EA064613F1400F4FEA16461FDD13F134
:10185000200FDFBF16430A46002120335B42BED073
:10186000C3F1200746EA064602FA07F74FEA164692
:1018700046EA0706C3F1200722FA03F201FA07F746
:1018800021FA03F14FF0000342EA0702A7E746EA14
:10189000020646EA06464FEA164646EA0106BCBF7D
:1018A00046EA0646360C4FF000034FF000024FF0B8
:1018B000000194E72DE9804C9A46934670B491E874
:1018C000380007C831EA400C48BF34EA430C03D55E
:1018D000FFF7E6FDFFF780FFF0BCBDE8008C2DE9C7
:1018E000804C9A46934670B491E8380007C810F0CF
:1018F000804F08BF13F0804F03D100F005F8FFF7C9
:101900006BFFF0BCBDE8008C20F07F4780EA03004D
:1019100023F07F4C07EB0C03A3F57C5300F0004051
:10192000A3F1FE0392F0000F00F0B38095F0000FDA
:1019300000F077802DE901494FEA11404FEA144643
:1019400021EA004800FB06FC24EA064708FB06F6ED
:1019500007FB08F800FB07F718EB06484CEB164CA2
:101960004FEA124B18EB07484FEA15464CEB17406D
:1019700022EA0B4E0BFB06FC25EA06470EFB06F699
:1019800007FB0EFE0BFB07F71EEB064E4CEB164C4F
:101990004FF000061EEB074E4CEB174B18EB0B08F5
:1019A00040F1000018EB0E0B58EB000840F100006E
:1019B0008F1A4FF000013CBFC943661B14BFB5EB43
:1019C000040C00213CBFC943F61B4FEA17444EEA02
:1019D0008E0E27EA04454FEA1C4704FB07622CEAF7
:1019E000074C05FB07F70CFB05F604FB0CFC16EB9C
:1019F000074642EB174216EB0C4642EB1C421BEB30
:101A0000060658EB0202414146EA9E0601D5BDE8B2
:101A10000189B619524141EB0101A3F10103BDE86F
:101A200001894FEA14454FEA114724EA054621EAA5
:101A3000074C05FB07F406FB07F70CFB06F105FB5B
:101A40000CFC11EB074144EB17444FEA124711EB32
:101A50000C4144EB1C4422EA074C05FB07F206FB51
:101A600007F70CFB06F605FB0CFC16EB074642EBF2
:101A7000174216EB0C4642EB1C456A1854F1000164
:101A800048BF7047B619524141EB0101A3F1010370
:101A9000704795F0000F37D04FEA11424FEA1447D4
:101AA00021EA024624EA074C02FB07F106FB07F78E
:101AB0000CFB06F402FB0CFC14EB074441EB174152
:101AC0004FEA154714EB0C4441EB1C4125EA074C47
:101AD00002FB07F506FB07F70CFB06F602FB0CFC06
:101AE00016EB074645EB174516EB0C4645EB1C423B
:101AF000121951F1000148BF7047B619524141EB2C
:101B00000101A3F1010370474FEA14454FEA114761
:101B100024EA054621EA074C05FB07F106FB07F717
:101B20000CFB06F24FF0000605FB0CFC12EB074223
:101B300041EB174112EB0C4251EB1C4148BF70477F
:101B4000921841EB0101A3F101037047FEE7000089
:101B50000148006C00470000000000200148C068F8
:101B6000004700000000002010B5094CD4F81F0009
:101B700000F036F900280AD054F81B0F00F0A2F844
:101B800054F8050C002100F0A9F80020A07510BD44
:101B9000B200002010B50F4CD4F82D0000F020F951
:101BA000002815D0D4F8290000F08CF8606A0021D4
:101BB00000F094F8616A64204860024600210648FB
:101BC00000F0B0FE606ABDE81040012100F086B868
:101BD00010BD0000B20000203C05002010B5094CEB
:101BE000D4F81F0000F0FCF800280AD054F81B0FAE
:101BF00000F068F854F8050C002100F06FF80020A0
:101C0000A07510BD4600002010B50F4CD4F82D0073
:101C100000F0E6F8002815D0D4F8290000F052F8BA
:101C2000606A002100F05AF8616AC82048600246E4
:101C30000021064800F0A8FC606ABDE810400121C0
:101C400000F04CB810BD000046000020F00200205B
:101C500010B50F4CD4F82D0000F0C2F8002815D0B4
:101C6000D4F8290000F02EF8606A002100F036F860
:101C7000616A6420486002460021064800F06CFD5D
:101C8000606ABDE81040012100F028B810BD0000D6
:101C90007C0000204804002010B5094CD4F81F0037
:101CA00000F09EF800280AD054F81B0F00F00AF844
:101CB00054F8050C002100F011F80020A07510BDAB
:101CC0007C000020C10002D502490860704702492B
:101CD0004860704704040240000002400029016887
:101CE00002D041F0010102E04FF6FE7211400160A6
:101CF0007047000001684FF6FE721140016000213C
:101D0000016041608160C1603149314A08399042C7
:101D100003D1486840F00F0006E02D4A143290428B
:101D200004D1486840F0F00048607047284A2832E3
:101D3000904203D1486840F47060F5E7244A3C3291
:101D4000904203D1486840F47040EDE7204A503299
:101D5000904203D1486840F47020E5E71C4A6432A1
:101D6000904203D1486840F47000DDE7184A7832A9
:101D7000904203D1486840F07060D5E7154A111FC2
:101D8000904203D1086840F00F0006E0114A143277
:101D9000904204D1086840F0F000086070470D4A96
:101DA0002832904203D1086840F47060F5E7094A90
:101DB0003C32904203D1086840F47040EDE7054A98
:101DC00050329042EAD1086840F47020E5E7000004
:101DD0000800024008040240406880B270470000DA
:101DE00002460020D10001D5034900E003490968FB
:101DF000114200D001207047000402400000024060
:101E0000002A026801D00A4300E08A43026070475A
:101E100030B5026847F6F0739A430C6A8B68234327
:101E2000D1E904452C4323438C692343CC692343E4
:101E30004C6A23438C6A234313430360CA6842609D
:101E40000A6882604968C16030BD00002DE9F8432E
:101E5000444D4549D5F8160088424FF0010101D99B
:101E6000022000E0012000F08BFAA87E8DF800002F
:101E7000687D8DF8010001248DF802408DF8034043
:101E8000684600F039FA95F828008DF8000095F8BA
:101E900023008DF801008DF802408DF8034068465C
:101EA00000F02AFAD5F816000021FFF717FFD5F841
:101EB0001600FFF71FFF28682C4C001D04F10C01D1
:101EC0002060A4F52F7060601020A0604FF4FA70BD
:101ED0000026802781E8C100A6614FF44058E661E2
:101EE000C4E90868A662D5F816002146FFF790FFFE
:101EF000D5F81B00FFF7E6FED5F816000021FFF726
:101F0000EDFED5F8160001220221FFF779FF686A7D
:101F10000021FFF7E3FE686AFFF7ECFE286804F192
:101F20000C01001D2060A4F1C800C4E90106C8200E
:101F300081E8C100A661E661C4E90868A662686A32
:101F40002146FFF765FFD5F82900FFF7BBFE686A59
:101F50000121FFF7C3FE686A01220221FFF750FF4B
:101F6000BDE8F8834600002000040240B8030020CA
:101F70000549012281F8312051F8162F5060086878
:101F80000121FFF7ABBE0000460000202DE9F84319
:101F9000424D4349D5F8160088424FF0010101D95E
:101FA000022000E0012000F0EBF9A87E8DF800008F
:101FB000687D8DF8010001248DF802408DF8034002
:101FC000684600F099F995F828008DF8000095F81A
:101FD00023008DF801008DF802408DF8034068461B
:101FE00000F08AF9D5F816000021FFF777FED5F842
:101FF0001600FFF77FFE2B4C28686427001D206029
:10200000A4F1C800606010200026A060C4E9037637
:102010004FF08008C4E905864FF44059E661C4E9F1
:102020000869A662D5F816002146FFF7F1FED5F83B
:102030001B00FFF747FED5F816000021FFF74EFE04
:10204000D5F8160001220221FFF7DAFE686A0021A6
:10205000FFF744FE686AFFF74DFE28681149001D2E
:1020600001C4A4F16800C1C464E80468A661E66123
:10207000C4E90869A662686AFFF7CAFED5F82900B4
:10208000FFF720FE686A0121FFF728FE686A012237
:102090000221FFF7B5FEBDE8F88300007C000020B8
:1020A00000040240AC0400200549012281F83120DF
:1020B00051F8162F506008680121FFF70FBE00008D
:1020C0007C0000202DE9F843424D4349D5F8160025
:1020D00088424FF0010101D9022000E0012000F008
:1020E0004FF9A87E8DF80000687D8DF8010001246D
:1020F0008DF802408DF80340684600F0FDF895F831
:1021000028008DF8000095F823008DF801008DF867
:1021100002408DF80340684600F0EEF8D5F816004E
:102120000021FFF7DBFDD5F81600FFF7E3FD2B4C90
:1021300028686427001D2060A4F1C800606010209A
:102140000026A060C4E903764FF08008C4E9058644
:102150004FF44059E661C4E90869A662D5F8160053
:102160002146FFF755FED5F81B00FFF7ABFDD5F86C
:1021700016000021FFF7B2FDD5F81600012202215A
:10218000FFF73EFE686A0021FFF7A8FD686AFFF7C7
:10219000B1FD28681149001D01C4A4F16800C1C443
:1021A00064E80468A661E661C4E90869A662686A31
:1021B000FFF72EFED5F82900FFF784FD686A01219C
:1021C000FFF78CFD686A01220221FFF719FEBDE8C6
:1021D000F8830000B200002000040240A0050020A7
:1021E0000549012281F8312051F8162F5060086806
:1021F0000121FFF773BD0000B2000020704700000E
:102200000148006A00470000000000200148406BC0
:1022100000470000000000200148406A004700001D
:10222000000000200148806A0047000000000020F4
:102230000148C06A00470000000000200148006A11
:1022400000470000000000200148006B004700002C
:1022500000000020F0B5CC78002204F00F03E40663
:1022600001D58C7823430C784FF00F0C14F0FF0F3E
:102270004FF0010E1BD005680E880EFA02F42640BE
:10228000A64210D196000CFA06F725EA070703FAD2
:1022900006F5CE783D43282E02D0482E02D002E02B
:1022A000446100E00461521C082AE5D305600A88F5
:1022B000FF2A1CD94468002202F108060EFA06F52E
:1022C0000E882E40AE420ED196000CFA06F7BC43A3
:1022D00003FA06F7CE783C43282E00D14561CE782C
:1022E000482E00D10561521C082AE5D34460F0BD98
:1022F000FEE7FEE77047000030B50F23C278017893
:102300000125F2B1144A126801F1E02102F4E06201
:10231000C2F5E062120AC2F10404D3404278A2403E
:1023200084781C401443220181F80024007800F0D6
:102330001F018D404009800000F1E020C0F80051ED
:1023400030BD01F01F0085404809800000F1E02009
:10235000C0F8805130BD00000CED00E00249084398
:1023600002490860704700000000FA050CED00E02B
:102370000148806B0047000000000020704700000B
:10238000044A0029516901D0014300E081435161B1
:102390007047000000100240044A0029D16901D0B2
:1023A000014300E08143D16170470000001002400A
:1023B000044A0029916901D0014300E08143916101
:1023C000704700000010024030B5204A5168204B91
:1023D00011F00C0103D0042901D0082901D00360B9
:1023E00012E05168536801F470114FF0020413F4C5
:1023F000803F04EB914102D053689B0301D5154BFC
:1024000000E0134B5943016051680F2303EA111197
:10241000114B5C5C0168E14041605468072505EAA6
:1024200014241C5D21FA04F48460546805EAD42461
:102430001B5DD940C1605268032303EA9232064B08
:102440001B1F9A5CB1FBF2F1016130BD001002402C
:1024500000127A0000093D00E900002070470000EA
:102460000CB50022264800920192016841F48031A7
:1024700001604FF4A063016801F4003101910099FB
:10248000491C0091019911B900999942F3D1016851
:10249000890333D5012101911A490A6842F01002DB
:1024A0000A600A6822F003020A600A6842F0020227
:1024B0000A604168416041684160416841F480615F
:1024C0004160416821F47C114160416841F4E811A8
:1024D0004160016841F08071016001688901FCD5AB
:1024E000416821F003014160416841F0020141600F
:1024F0004168C1F381010229FAD10CBD01920CBDE2
:1025000000100240002002400F4810B5016841F061
:102510000101016041680D4A1140416001680C4AA7
:1025200011400160016821F480210160416821F4BB
:10253000FE0141604FF41F018160FFF791FF0549E3
:102540004FF00060086010BD001002400000FFF86E
:10255000FFFFF6FE08ED00E00148006900470000BB
:1025600000000020014840690047000000000020F2
:102570000148806900470000000000200148C06950
:10258000004700000000002001E000F8011B521E7F
:1025900092B2FAD27047000001480068004700007C
:1025A0000000002070B51D4C40F22441206800F06E
:1025B000BBFA18B3606A0021FFF790FB606AFFF76F
:1025C0000BFCA51EC0F1C800154E288006F1C800FE
:1025D00006F1C8014660606AFFF71AFC616AC8200C
:1025E000486028880021315440F400402880606A07
:1025F0000121FFF773FB206800F024FB206808210D
:1026000000F08BFA012808D12068082100F070FA48
:102610002068BDE8704000F015BB70BD460000208A
:10262000F002002070B5354C0D46064686B0606855
:102630000121FFF7BDFE20683149884260684FF0F4
:10264000010102D1FFF7B4FE01E0FFF7A5FEA0688B
:102650000121FFF7ADFE208AADF8100003208DF8B0
:10266000120018208DF81300E06804A9FFF7F2FDAE
:10267000608AADF8100004208DF81300E06804A90A
:10268000FFF7E8FD1F480560207D8DF81400082045
:102690008DF8150000258DF8165001208DF81700D3
:1026A00005A8FFF729FEADF80450ADF808500C203E
:1026B0000096ADF80650ADF80C50ADF80A00206851
:1026C000694600F069FA2068012240F2244100F0D6
:1026D0004AFA2068012100F00EFAFFF7B7FB2068E4
:1026E0000122802100F011FA20680122402100F02F
:1026F0000CFA05A000F014F806B070BD46000020EA
:1027000000380140000000207072696E7466207508
:102710007361727431204F4B2E2E2E0D0A00000073
:102720000FB40B4810B590F831100129FBD003AB62
:1027300040F2F5110748029AFDF79EFD0548FDF7A6
:10274000B5FD80B2FFF714FC10BC5DF814FB00006F
:1027500046000020FC00002001E000F8011B521E92
:1027600092B2FAD27047000001484068004700006A
:102770000000002070B51D4C40F22441206800F09C
:10278000D3F918B3606A0021FFF7A8FA606AFFF76F
:1027900023FBA51EC0F16400154E288006F16400DD
:1027A00006F164014660606AFFF732FB616A6420EB
:1027B000486028880021315440F400402880606A35
:1027C0000121FFF78BFA206800F03CFA206808210D
:1027D00000F0A3F9012808D12068082100F088F949
:1027E0002068BDE8704000F02DBA70BD7C0000206C
:1027F0004804002070B5354C0D46064686B060682A
:102800000121FFF7D5FD20683149884260684FF00B
:10281000010102D1FFF7CCFD01E0FFF7BDFDA0688B
:102820000121FFF7C5FD208AADF8100003208DF8C7
:10283000120018208DF81300E06804A9FFF70AFDC4
:10284000608AADF8100004208DF81300E06804A938
:10285000FFF700FD1F480560207D8DF8140008205B
:102860008DF8150000258DF8165001208DF8170001
:1028700005A8FFF741FDADF80450ADF808500C2055
:102880000096ADF80650ADF80C50ADF80A0020687F
:10289000694600F081F92068012240F2244100F0ED
:1028A00062F92068012100F026F9FFF76FFB20682C
:1028B0000122802100F029F920680122402100F046
:1028C00024F905A000F014F806B070BD7C000020CB
:1028D00000380140040000207072696E7466207533
:1028E0007361727432204F4B2E2E2E0D0A000000A1
:1028F0000FB40A4810B590F831100129FBD003AB92
:1029000065210748029AFDF7B7FC0548FDF7CEFCA4
:1029100080B2FFF7C9FB10BC5DF814FB7C000020FF
:10292000E403002001E000F8011B521E92B2FAD22B
:102930007047000001488068004700000000002048
:1029400070B51D4C40F22441206800F0EDF818B33A
:10295000606A0021FFF7C2F9606AFFF73DFAA51E21
:10296000C0F16400154E288006F1640006F1640190
:102970004660606AFFF74CFA616A64204860288804
:102980000021315440F400402880606A0121FFF7A3
:10299000A5F9206800F056F92068082100F0BDF87C
:1029A000012808D12068082100F0A2F82068BDE8BD
:1029B000704000F047B970BDB20000203C05002017
:1029C00070B5354C0D46064686B060680121FFF7AC
:1029D000EFFC20683149884260684FF0010102D164
:1029E000FFF7E6FC01E0FFF7D7FCA0680121FFF745
:1029F000DFFC208AADF8100003208DF812001820AB
:102A00008DF81300E06804A9FFF724FC608AADF894
:102A1000100004208DF81300E06804A9FFF71AFCE9
:102A20001F480560207D8DF8140008208DF81500E2
:102A300000258DF8165001208DF8170005A8FFF726
:102A40005BFCADF80450ADF808500C200096ADF8D2
:102A50000650ADF80C50ADF80A002068694600F049
:102A60009BF82068012240F2244100F07CF82068A5
:102A7000012100F040F8FFF725FB206801228021AA
:102A800000F043F820680122402100F03EF805A044
:102A900000F014F806B070BDB2000020003801400C
:102AA000080000207072696E74662075736172741C
:102AB00033204F4B2E2E2E0D0A0000000FB40A4873
:102AC00010B590F831100129FBD003AB6521074800
:102AD000029AFDF7D1FB0548FDF7E8FB80B2FFF74E
:102AE0007FFB10BC5DF814FBB2000020D80400206E
:102AF000C943018070470029818902D041F4005107
:102B000001E021F4005181817047002A828A01D0BE
:102B10000A4300E08A4382827047024600201288FE
:102B20000A4200D00120704770B501F01F05012650
:102B30000024C1F3421306FA05F2012B0FD0022B39
:102B40000FD0838A4FEA11210088134206FA01F65A
:102B500000EA060001D000B10124204670BD83893F
:102B6000F0E7038AEEE710B5C1F3421301F01F044A
:102B70000121A140012B07D0022B07D01430002ADD
:102B8000026805D00A4304E00C30F8E71030F6E79D
:102B90008A43026010BD000030B50446008A85B04B
:102BA0000D464CF6FF710840E98801432182A08957
:102BB0004EF6F3110840A9882A8911436A89024315
:102BC0001143A181A08A4FF6FF410840A989014322
:102BD000A1826846FFF7F8FB1948844201D10398A7
:102BE00000E00298A189090400EBC00101EB00108C
:102BF000296801D5490000E08900B0FBF1F06422AA
:102C0000B0FBF2F109010B096FF018056B4300EB03
:102C10008300A3891D044FF0320306D503EBC000E7
:102C2000B0FBF2F000F0070005E003EB0010B0FB92
:102C3000F2F000F00F000843208105B030BD000025
:102C4000003801408088C0F3080070470148C06B1D
:102C50000047000000000020FEE7490050EAC120C4
:102C600018BF04204A0D18BF40F0010040F2FF7267
:102C7000B2EB515F08BF40F00200012808BF0520F9
:102C8000704730380A2801D2012070470020704771
:102C9000704700004FF44070FFF760FB4FF4E134E1
:102CA00014492046FFF7BEFC13492046FFF7A2FD5A
:102CB00012492046FFF784FE114C124E124F002598
:102CC0002088000404D5114911A0FFF729FD2580B3
:102CD0003088000404D5134913A0FFF709FE35809E
:102CE00038880004ECD5154915A0FFF7E7FE3D80B4
:102CF000E6E70000A525000875270008412900081F
:102D0000440000207A000020B0000020F0020020E3
:102D10005553415254315F52585F4255463D2573D9
:102D200000000000480400205553415254325F52C5
:102D3000585F4255463D2573000000003C050020C9
:102D40005553415254335F52585F4255463D2573A7
:102D50000000000010B500290AD00878002807D02C
:102D600005487844FEF7EAFA002801D0002010BD9B
:102D70000248784410BD00006E01000066010000AA
:102D800010B500290AD00878002807D005487844F3
:102D9000FEF7D4FA002801D0002010BD0248784484
:102DA00010BD00005E01000056010000FDF7D3BE1B
:102DB000FEF708B800000000000000003031323398
:102DC000343536373839414243444546403058005F
:102DD0003031323334353637383961626364656691
:102DE00040307800040000080000000000000002ED
:102DF0000001000010303132333435363738396154
:102E0000626364656678700030313233343536374A
:102E100038394142434445465850000002400000C2
:102E2000000000A00000000005400000000000C8F5
:102E3000000000000C4000000000409C000000006A
:102E4000194000000020BCBE00000000344000001B
:102E5000BFC91B8E00000004B5400000504BCFD00E
:102E60006607E2CF010000006C4100003E8251AADB
:102E7000DFEEA73401000000D9420000DCB5A0E27B
:102E80003A301F97FFFFFFFFB4450000FD25A0C8A3
:102E9000E9A3C14FFFFFFFFFFF3F000000000080DC
:102EA00000000000FF3F0000000000800000000064
:102EB000FC2F000800000020FC0000002801000892
:102EC000F8300008FC000020340B0000440100082A
:102ED0001C00000043000000F8FFFFFF0C00000092
:102EE0000E0000000F0000002E0000001001000086
:102EF00043000000F8FFFFFF0040404040404040DA
:102F000040404141414141404040404040404040BC
:102F10004040404040404040400502020202020260
:102F200002020202020202020220202020202020AF
:102F300020202002020202020202909090909090C3
:102F40001010101010101010101010101010101081
:102F500010101010020202020202888888888888F5
:102F600008080808080808080808080808080808E1
:102F700008080808020202024000000000000000E9
:102F80000000000000000000000000000000000041
:102F90000000000000000000000000000000000031
:102FA0000000000000000000000000000000000021
:102FB0000000000000000000000000000000000011
:102FC0000000000000000000000000000000000001
:102FD00000000000000000000000000000000000F1
:102FE00000000000000000000000000000000000E1
:102FF00000000000000000000000000000000000D1
:1030000000000000000000000000000000000000C0
:1030100000000000000000000000000000000000B0
:1030200000000000000000000000000000000000A0
:103030000000000000000000000000000000000090
:1030400000000038014000400000040000000008BB
:103050000140000200042501440002400E0010005F
:10306000000020000001580002400F000001000095
:1030700000020000000000000044004000000200C8
:103080000400000000080140040008002601800040
:103090000240110000000100000002016C0002402B
:1030A0001000001000000020000000000000004898
:1030B00000400000040008000000000C0140000473
:1030C000000827011C0002400C1000000020000036
:1030D0000001300002400D0001000000020000006D
:1030E00000020406080000000001020304010203BC
:0830F0000406070809000000B6
:0400000508000235B8
:00000001FF
